:100000000C9462000C948A000C948A000C948A0070
:100010000C948A000C948A000C948A000C948A0038
:100020000C948A000C948A000C948A000C948A0028
:100030000C948A000C948A000C948A000C948A0018
:100040000C94C3020C948A000C948A000C948A00CD
:100050000C948A000C948A000C948A000C948A00F8
:100060000C948A000C948A000000000024002700F1
:100070002A0000000000250028002B0000000000DE
:1000800023002600290004040404040404040202DA
:100090000202020203030303030301020408102007
:1000A0004080010204081020010204081020000012
:1000B0000008000201000003040700000000000027
:1000C0000000E00311241FBECFEFD8E0DEBFCDBF9C
:1000D00011E0A0E0B1E0ECE0F8E002C005900D9284
:1000E000A236B107D9F721E0A2E6B1E001C01D9226
:1000F000A338B207E1F710E0C2E6D0E004C02197D0
:10010000FE010E94FE03C136D107C9F70E940D030C
:100110000C9404040C940000AF92BF92CF92DF9233
:10012000EF92FF920F931F93CF93DF936C017B01AC
:100130008B01040F151FEB015E01AE18BF08C0173D
:10014000D10759F06991D601ED91FC910190F081B0
:10015000E02DC6010995892B79F7C501DF91CF9173
:100160001F910F91FF90EF90DF90CF90BF90AF90D5
:100170000895833081F028F4813099F08230A9F01D
:1001800008958730A9F08830C9F08430B1F48091A7
:1001900080008F7D03C0809180008F7780938000E6
:1001A000089584B58F7784BD089584B58F7DFBCF86
:1001B0008091B0008F778093B00008958091B00057
:1001C0008F7DF9CFCF93DF93282F30E0F901E255EF
:1001D000FF4F8491F901E656FF4FD491F901EA5798
:1001E000FF4FC491CC23A1F081110E94B900EC2FE4
:1001F000F0E0EE0FFF1FE458FF4FA591B491EC9192
:10020000ED2381E090E009F480E0DF91CF91089543
:1002100080E090E0FACF1F93CF93DF93282F30E058
:10022000F901E255FF4F8491F901E656FF4FD49151
:10023000F901EA57FF4FC491CC23A9F0162F811181
:100240000E94B900EC2FF0E0EE0FFF1FEE58FF4FB9
:10025000A591B4918FB7F894EC91111108C0D09585
:10026000DE23DC938FBFDF91CF911F910895DE2BAA
:10027000F8CFCF93DF9390E0FC01E656FF4F249137
:100280008A579F4FFC0184918823D1F090E0880F1A
:10029000991FFC01E859FF4FA591B491FC01EE585C
:1002A000FF4FC591D49161110EC09FB7F8948C9106
:1002B000E22FE0958E238C932881E223E8839FBF71
:1002C000DF91CF9108958FB7F894EC91E22BEC93E6
:1002D0008FBFF6CF089590E080E00895FC01019073
:1002E0000020E9F73197AF01481B590BBC018BE6A1
:1002F00091E00C948C00CF93DF93EC0160E08E8151
:100300000E940B0161E08E810E940B0160E08E81F2
:100310000E940B018BE891E00197F1F7DF91CF91FB
:100320000895CF92DF92EF92FF920F931F93CF9396
:10033000DF936C017C0187E0E80EF11CD0E0C0E0A7
:10034000062F10E0B8010C2E02C0759567950A942F
:10035000E2F76170F70181917F010E940B01219604
:10036000C430D10579F7C601DF91CF911F910F916C
:10037000FF90EF90DF90CF900C947B01CF92DF92B3
:10038000EF92FF920F931F93CF93DF93EC01F62E22
:10039000642F8C810E940B018D818F3F19F060E0EA
:1003A0000E940B010F2D10E08F8584FF25C06E0188
:1003B00087E0C80ED11CF12CE12CB8010E2C02C034
:1003C000759567950A94E2F76170F60181916F0166
:1003D0000E940B01FFEFEF1AFF0A88E0E816F10414
:1003E00061F7CE01DF91CF911F910F91FF90EF90B8
:1003F000DF90CF900C947B01B80184E075956795F0
:100400008A95E1F7CE010E9491016F2DCE01DF9117
:10041000CF911F910F91FF90EF90DF90CF900C94B0
:10042000910140E0682F8BE691E00C94BE01CF93E0
:10043000DF93823029F490917A01986090937A0149
:1004400080937E0110927F0180E48093800180E19F
:100450008093810180E58093820161E080916F014A
:100460000E943901809170018F3F19F061E00E9474
:10047000390161E0809171010E943901CBE6D1E040
:100480009E012B56314080917A0184FD0BC084E09F
:1004900090E021962817390744F461E08E810E948C
:1004A0003901EECF88E090E0F4CF8BE39DE0019737
:1004B000F1F760E080916F010E940B0160E0809194
:1004C00071010E940B01809170018F3F19F060E073
:1004D0000E940B0180917A0184FD39C063E08BE6B4
:1004E00091E00E949101CBE4D6E4CE010197F1F7AF
:1004F00063E08BE691E00E9491012197F1F763E0C0
:100500008BE691E00E94910183E592E00197F1F77B
:1005100062E08BE691E00E94910180917A01806215
:100520000E94110284E080937B018CE00E94110202
:1005300081E00E9411028BE39FE10197F1F782E0D5
:1005400080937C0186E0DF91CF910C941102806250
:100550000E9411028BE496E40197F1F780917A01F1
:1005600080620E94110283E592E00197F1F7809189
:100570007A0180620E941102D0CF41E00E94BE0148
:1005800081E090E008951F920F920FB60F92112410
:100590002F933F938F939F93AF93BF938091670166
:1005A00090916801A0916901B0916A013091660152
:1005B00023E0230F2D3758F50196A11DB11D20937F
:1005C00066018093670190936801A0936901B093DD
:1005D0006A018091620190916301A0916401B091E0
:1005E00065010196A11DB11D809362019093630185
:1005F000A0936401B0936501BF91AF919F918F91DA
:100600003F912F910F900FBE0F901F90189526E8E5
:10061000230F0296A11DB11DD2CF789484B58260BC
:1006200084BD84B5816084BD85B5826085BD85B596
:10063000816085BD80916E00816080936E00109214
:10064000810080918100826080938100809181008F
:100650008160809381008091800081608093800020
:100660008091B10084608093B1008091B00081607E
:100670008093B00080917A00846080937A008091AA
:100680007A00826080937A0080917A008160809302
:100690007A0080917A00806880937A001092C1007D
:1006A00082E00E9417028CE091E00E946E0161E0FE
:1006B00086E00E94390161E087E00E94390160E034
:1006C00088E00E94390160E089E00E943901C0E0C1
:1006D000D0E0E0917E01E23008F070C0E150F0E03F
:1006E000E559FE4F848980680E94110288E00E94CB
:1006F000E200019769F489E00E94E200892B41F44D
:100700008DE191E00E946E0161E086E00E940B01A4
:1007100088E00E94E200892B21F460E086E00E94DC
:100720000B0189E00E94E200019769F488E00E94D1
:10073000E200892B41F48EE291E00E946E0161E0BB
:1007400087E00E940B0189E00E94E200892B21F4DE
:1007500060E087E00E940B0188E00E94E200892BA4
:1007600089F489E00E94E200892B61F48FE391E033
:100770000E946E0160E086E00E940B0160E087E06D
:100780000E940B0188E00E94E200019789F489E051
:100790000E94E200019761F480E591E00E946E0101
:1007A00061E086E00E940B0161E087E00E940B019E
:1007B000209709F48ECF0E9400008BCFE1E08FCF0D
:1007C000EBE6F1E01382128284E091E09183808372
:1007D0008CE084838FEF85838BE0868385E087833D
:1007E00084E0808783E0818782E082871386148695
:1007F00015861686178681E00C941702EE0FFF1FF0
:0C0800000590F491E02D0994F894FFCFCE
:10080C0000000000BD028C006B016A01594154527A
:10081C0049204D4F544F524359434C45004D6F7432
:10082C006F722031206973204F4E20202000202031
:10083C00204D6F746F722032206973204F4E00412F
:10084C004C204D4F544F5220415245204F464600AC
:10085C00414C4C204D4F544F5220415245204F4E4D
:02086C0000008A
:00000001FF
