:100000000C9462000C948A000C948A000C948A0070
:100010000C948A000C948A000C948A000C948A0038
:100020000C948A000C948A000C948A000C948A0028
:100030000C948A000C948A000C948A000C948A0018
:100040000C94C3020C948A000C948A000C948A00CD
:100050000C948A000C948A000C948A000C948A00F8
:100060000C948A000C948A000000000024002700F1
:100070002A0000000000250028002B0000000000DE
:1000800023002600290004040404040404040202DA
:100090000202020203030303030301020408102007
:1000A0004080010204081020010204081020000012
:1000B0000008000201000003040700000000000027
:1000C0000000CA0311241FBECFEFD8E0DEBFCDBFB2
:1000D00011E0A0E0B1E0E0EEF7E002C005900D9283
:1000E000A237B107D9F721E0A2E7B1E001C01D9224
:1000F000A339B207E1F710E0C2E6D0E004C02197CF
:10010000FE010E94E803C136D107C9F70E940D0322
:100110000C94EE030C940000AF92BF92CF92DF924A
:10012000EF92FF920F931F93CF93DF936C017B01AC
:100130008B01040F151FEB015E01AE18BF08C0173D
:10014000D10759F06991D601ED91FC910190F081B0
:10015000E02DC6010995892B79F7C501DF91CF9173
:100160001F910F91FF90EF90DF90CF90BF90AF90D5
:100170000895833081F028F4813099F08230A9F01D
:1001800008958730A9F08830C9F08430B1F48091A7
:1001900080008F7D03C0809180008F7780938000E6
:1001A000089584B58F7784BD089584B58F7DFBCF86
:1001B0008091B0008F778093B00008958091B00057
:1001C0008F7DF9CFCF93DF93282F30E0F901E255EF
:1001D000FF4F8491F901E656FF4FD491F901EA5798
:1001E000FF4FC491CC23A1F081110E94B900EC2FE4
:1001F000F0E0EE0FFF1FE458FF4FA591B491EC9192
:10020000ED2381E090E009F480E0DF91CF91089543
:1002100080E090E0FACF1F93CF93DF93282F30E058
:10022000F901E255FF4F8491F901E656FF4FD49151
:10023000F901EA57FF4FC491CC23A9F0162F811181
:100240000E94B900EC2FF0E0EE0FFF1FEE58FF4FB9
:10025000A591B4918FB7F894EC91111108C0D09585
:10026000DE23DC938FBFDF91CF911F910895DE2BAA
:10027000F8CFCF93DF9390E0FC01E656FF4F249137
:100280008A579F4FFC0184918823D1F090E0880F1A
:10029000991FFC01E859FF4FA591B491FC01EE585C
:1002A000FF4FC591D49161110EC09FB7F8948C9106
:1002B000E22FE0958E238C932881E223E8839FBF71
:1002C000DF91CF9108958FB7F894EC91E22BEC93E6
:1002D0008FBFF6CF089590E080E00895FC01019073
:1002E0000020E9F73197AF01481B590BBC018BE7A0
:1002F00091E00C948C00CF93DF93EC0160E08E8151
:100300000E940B0161E08E810E940B0160E08E81F2
:100310000E940B018BE891E00197F1F7DF91CF91FB
:100320000895CF92DF92EF92FF920F931F93CF9396
:10033000DF936C017C0187E0E80EF11CD0E0C0E0A7
:10034000062F10E0B8010C2E02C0759567950A942F
:10035000E2F76170F70181917F010E940B01219604
:10036000C430D10579F7C601DF91CF911F910F916C
:10037000FF90EF90DF90CF900C947B01CF92DF92B3
:10038000EF92FF920F931F93CF93DF93EC01F62E22
:10039000642F8C810E940B018D818F3F19F060E0EA
:1003A0000E940B010F2D10E08F8584FF25C06E0188
:1003B00087E0C80ED11CF12CE12CB8010E2C02C034
:1003C000759567950A94E2F76170F60181916F0166
:1003D0000E940B01FFEFEF1AFF0A88E0E816F10414
:1003E00061F7CE01DF91CF911F910F91FF90EF90B8
:1003F000DF90CF900C947B01B80184E075956795F0
:100400008A95E1F7CE010E9491016F2DCE01DF9117
:10041000CF911F910F91FF90EF90DF90CF900C94B0
:10042000910140E0682F8BE791E00C94BE01CF93DF
:10043000DF93823029F490918A01986090938A0129
:1004400080938E0110928F0180E48093900180E16F
:100450008093910180E58093920161E080917F011A
:100460000E943901809180018F3F19F061E00E9464
:10047000390161E0809181010E943901CBE7D1E02F
:100480009E012B57314080918A0184FD0BC084E08E
:1004900090E021962817390744F461E08E810E948C
:1004A0003901EECF88E090E0F4CF8BE39DE0019737
:1004B000F1F760E080917F010E940B0160E0809184
:1004C00081010E940B01809180018F3F19F060E053
:1004D0000E940B0180918A0184FD39C063E08BE7A3
:1004E00091E00E949101CBE4D6E4CE010197F1F7AF
:1004F00063E08BE791E00E9491012197F1F763E0BF
:100500008BE791E00E94910183E592E00197F1F77A
:1005100062E08BE791E00E94910180918A01806204
:100520000E94110284E080938B018CE00E941102F2
:1005300081E00E9411028BE39FE10197F1F782E0D5
:1005400080938C0186E0DF91CF910C941102806240
:100550000E9411028BE496E40197F1F780918A01E1
:1005600080620E94110283E592E00197F1F7809189
:100570008A0180620E941102D0CF41E00E94BE0138
:1005800081E090E008951F920F920FB60F92112410
:100590002F933F938F939F93AF93BF938091770156
:1005A00090917801A0917901B0917A013091760112
:1005B00023E0230F2D3758F50196A11DB11D20937F
:1005C00076018093770190937801A0937901B0939D
:1005D0007A018091720190917301A0917401B091A0
:1005E00075010196A11DB11D809372019093730155
:1005F000A0937401B0937501BF91AF919F918F91BA
:100600003F912F910F900FBE0F901F90189526E8E5
:10061000230F0296A11DB11DD2CF789484B58260BC
:1006200084BD84B5816084BD85B5826085BD85B596
:10063000816085BD80916E00816080936E00109214
:10064000810080918100826080938100809181008F
:100650008160809381008091800081608093800020
:100660008091B10084608093B1008091B00081607E
:100670008093B00080917A00846080937A008091AA
:100680007A00826080937A0080917A008160809302
:100690007A0080917A00806880937A001092C1007D
:1006A00082E00E9417028CE091E00E946E0160E0FF
:1006B00086E00E94390160E087E00E94390160E035
:1006C00088E00E94390160E089E00E943901C0E0C1
:1006D000D0E0E0918E01E23008F05AC0E150F0E045
:1006E000E558FE4F848980680E94110286E00E94CE
:1006F000E200019741F48DE191E00E946E0160E01B
:1007000086E00E940B0187E00E94E200019741F41D
:100710008EE291E00E946E0160E087E00E940B0192
:1007200088E00E94E200019741F48FE391E00E948B
:100730006E0160E088E00E940B0189E00E94E20007
:10074000019741F480E591E00E946E0160E089E04C
:100750000E940B0186E00E94E200892B99F487E059
:100760000E94E200892B71F488E00E94E200892B4C
:1007700049F489E00E94E200892B21F481E691E0AE
:100780000E946E01209709F4A4CF0E940000A1CF1F
:10079000E1E0A5CFEBE7F1E01382128284E091E083
:1007A000918380838CE084838FEF85838BE08683C5
:1007B00085E0878384E0808783E0818782E0828789
:1007C0001386148615861686178681E00C94170208
:1007D000EE0FFF1F0590F491E02D0994F894FFCFE0
:1007E00000000000BD028C006B016A0159415452A7
:1007F00049204D4F544F524359434C4500425554A4
:100800004F4E203120495320505245534400425509
:10081000544F4E20322049532050524553440042F9
:1008200055544F4E203320495320505245534400D5
:100830004255544F4E203420495320505245534482
:100840000020616C6C20425554544F4E53204F464B
:02085000460060
:00000001FF
